{
  "contractName": "BoardGame",
  "abi": [
    {
      "inputs": [
        {
          "internalType": "address",
          "name": "creator",
          "type": "address"
        },
        {
          "internalType": "uint256",
          "name": "Id",
          "type": "uint256"
        }
      ],
      "stateMutability": "nonpayable",
      "type": "constructor"
    },
    {
      "anonymous": false,
      "inputs": [
        {
          "indexed": false,
          "internalType": "uint256",
          "name": "value",
          "type": "uint256"
        }
      ],
      "name": "Dealaccept",
      "type": "event"
    },
    {
      "anonymous": false,
      "inputs": [],
      "name": "Dealrefuse",
      "type": "event"
    },
    {
      "anonymous": false,
      "inputs": [],
      "name": "Gamestart",
      "type": "event"
    },
    {
      "inputs": [],
      "name": "SecondPlayer",
      "outputs": [
        {
          "internalType": "address",
          "name": "",
          "type": "address"
        }
      ],
      "stateMutability": "view",
      "type": "function"
    },
    {
      "inputs": [],
      "name": "currphase",
      "outputs": [
        {
          "internalType": "enum BoardGame.phase",
          "name": "",
          "type": "uint8"
        }
      ],
      "stateMutability": "view",
      "type": "function"
    },
    {
      "inputs": [],
      "name": "firstPlayer",
      "outputs": [
        {
          "internalType": "address",
          "name": "",
          "type": "address"
        }
      ],
      "stateMutability": "view",
      "type": "function"
    },
    {
      "inputs": [
        {
          "internalType": "address",
          "name": "pl2",
          "type": "address"
        }
      ],
      "name": "setSecondPl",
      "outputs": [],
      "stateMutability": "nonpayable",
      "type": "function"
    },
    {
      "inputs": [
        {
          "internalType": "bytes32",
          "name": "Rootm",
          "type": "bytes32"
        }
      ],
      "name": "storeRoot",
      "outputs": [],
      "stateMutability": "nonpayable",
      "type": "function"
    },
    {
      "inputs": [],
      "name": "check_phase",
      "outputs": [],
      "stateMutability": "nonpayable",
      "type": "function"
    },
    {
      "inputs": [
        {
          "internalType": "uint256",
          "name": "money",
          "type": "uint256"
        }
      ],
      "name": "placemoney1",
      "outputs": [],
      "stateMutability": "nonpayable",
      "type": "function"
    },
    {
      "inputs": [
        {
          "internalType": "uint256",
          "name": "money",
          "type": "uint256"
        }
      ],
      "name": "placemoney2",
      "outputs": [],
      "stateMutability": "nonpayable",
      "type": "function"
    },
    {
      "inputs": [],
      "name": "checkmoney",
      "outputs": [],
      "stateMutability": "nonpayable",
      "type": "function"
    }
  ],
  "bytecode": "0x608060405234801561000f575f80fd5b5060405161077538038061077583398181016040528101906100319190610138565b8160025f6101000a81548173ffffffffffffffffffffffffffffffffffffffff021916908373ffffffffffffffffffffffffffffffffffffffff160217905550805f819055505f60075f6101000a81548160ff0219169083600581111561009b5761009a610176565b5b021790555050506101a3565b5f80fd5b5f73ffffffffffffffffffffffffffffffffffffffff82169050919050565b5f6100d4826100ab565b9050919050565b6100e4816100ca565b81146100ee575f80fd5b50565b5f815190506100ff816100db565b92915050565b5f819050919050565b61011781610105565b8114610121575f80fd5b50565b5f815190506101328161010e565b92915050565b5f806040838503121561014e5761014d6100a7565b5b5f61015b858286016100f1565b925050602061016c85828601610124565b9150509250929050565b7f4e487b71000000000000000000000000000000000000000000000000000000005f52602160045260245ffd5b6105c5806101b05f395ff3fe608060405234801561000f575f80fd5b5060043610610091575f3560e01c806375529baf1161006457806375529baf146100f55780637f696b79146100ff578063911b8b4e1461011d578063b028361a14610139578063b3a92a601461015557610091565b806323464fa714610095578063547125241461009f57806355848e38146100bd57806357b5b32f146100d9575b5f80fd5b61009d610173565b005b6100a761021e565b6040516100b491906103ad565b60405180910390f35b6100d760048036038101906100d291906103fd565b610243565b005b6100f360048036038101906100ee91906103fd565b61024d565b005b6100fd610257565b005b610107610259565b60405161011491906103ad565b60405180910390f35b6101376004803603810190610132919061045b565b61027e565b005b610153600480360381019061014e91906104b0565b6102c3565b005b61015d61035c565b60405161016a919061054e565b60405180910390f35b600654600554036101ef57600554600481905550600260075f6101000a81548160ff021916908360058111156101ac576101ab6104db565b5b02179055507fd33c616b7b943889ca2140d7cbe4ce1ab3dc9bfc7a94659e27f752cfbe46e4aa6004546040516101e29190610576565b60405180910390a161021c565b7fdd758e66ee01dcecee8d8fbbbb5412d39badf7694269298316f36754af478da360405160405180910390a15b565b60025f9054906101000a900473ffffffffffffffffffffffffffffffffffffffff1681565b8060068190555050565b8060058190555050565b565b60035f9054906101000a900473ffffffffffffffffffffffffffffffffffffffff1681565b8060015f3373ffffffffffffffffffffffffffffffffffffffff1673ffffffffffffffffffffffffffffffffffffffff1681526020019081526020015f208190555050565b8060035f6101000a81548173ffffffffffffffffffffffffffffffffffffffff021916908373ffffffffffffffffffffffffffffffffffffffff1602179055507f9b69868ac25ea1a7cc34b8416317af62ec3718adf5b70cabc43903e50cb8754860405160405180910390a1600160075f6101000a81548160ff02191690836005811115610354576103536104db565b5b021790555050565b60075f9054906101000a900460ff1681565b5f73ffffffffffffffffffffffffffffffffffffffff82169050919050565b5f6103978261036e565b9050919050565b6103a78161038d565b82525050565b5f6020820190506103c05f83018461039e565b92915050565b5f80fd5b5f819050919050565b6103dc816103ca565b81146103e6575f80fd5b50565b5f813590506103f7816103d3565b92915050565b5f60208284031215610412576104116103c6565b5b5f61041f848285016103e9565b91505092915050565b5f819050919050565b61043a81610428565b8114610444575f80fd5b50565b5f8135905061045581610431565b92915050565b5f602082840312156104705761046f6103c6565b5b5f61047d84828501610447565b91505092915050565b61048f8161038d565b8114610499575f80fd5b50565b5f813590506104aa81610486565b92915050565b5f602082840312156104c5576104c46103c6565b5b5f6104d28482850161049c565b91505092915050565b7f4e487b71000000000000000000000000000000000000000000000000000000005f52602160045260245ffd5b60068110610519576105186104db565b5b50565b5f81905061052982610508565b919050565b5f6105388261051c565b9050919050565b6105488161052e565b82525050565b5f6020820190506105615f83018461053f565b92915050565b610570816103ca565b82525050565b5f6020820190506105895f830184610567565b9291505056fea264697066735822122068eea47abd5a6d634e2a844874a20a16737f4967f515c4649669e6a9ab1e498564736f6c63430008140033",
  "immutableReferences": {},
  "source": "// SPDX-License-Identifier: MIT\npragma solidity >=0.4.22 <0.9.0;\nimport \"@openzeppelin/contracts/utils/cryptography/MerkleProof.sol\";\ncontract BoardGame {\n  \n   // we take the root beacuse anyone can check if we change the initial choiche\n   // at the end of the game anyone can check the board correspond the board have previous committed\n\n  // Players  Merkle tree root\n  uint IDgame;\n  mapping(address => bytes32) plyrsMerkleRt;\n  enum phase {WaitP,GameSt,Deal, PlaceSh, Shot,End}\n  address public firstPlayer;\n  address public SecondPlayer;\n\n  uint256 dealMoney;\n  uint256 amountMoney1;\n  uint256 amountMoney2;\n\n  phase public currphase;\n\n\n  // events\n  event Gamestart(); // Second Player join the game\n  event Dealaccept(uint value);\n  event Dealrefuse();\n\n\n  function setSecondPl(address pl2) public\n  {\n    SecondPlayer=pl2;\n    emit Gamestart();\n    currphase=phase.GameSt;\n  }\n    //memorizzo il merkel tree dell'utente\n  function storeRoot(bytes32 Rootm) public\n  {\n    plyrsMerkleRt[msg.sender]=Rootm;\n  }\n\n   // controllo in che fase mi trovo\n  function check_phase() public\n  {\n  \n  }\n  \n// controllo che l'avversario non stia barando\n  function Proof(\n        bool Ship,\n        uint256 salt,\n        uint8 ix,\n        bytes32[] memory proof,\n        bytes32 root\n    ) internal pure returns (bool) {\n      bytes32 leaf = keccak256(bytes.concat(keccak256(abi.encode(salt,Ship, ix)))); \n\n        return MerkleProof.verify(proof, root, leaf);\n    }\n\n  // controllo che la posizione sia corretta\n  function  shot(uint8 pos) internal\n  {\n\n  }\n  function placemoney1(uint256 money) public\n  {\n    amountMoney1=money;\n  }\n  function placemoney2(uint256 money) public\n  {\n    amountMoney2=money;\n  }\n  function checkmoney() public\n  {\n    if(amountMoney1==amountMoney2) \n    {\n      dealMoney=amountMoney1;\n      currphase=phase.Deal;\n      emit Dealaccept(dealMoney);\n\n    }\n    else\n    {\n      emit Dealrefuse();\n    }\n  }\n\n  constructor(address creator, uint Id) \n  {\n    firstPlayer = creator;\n    IDgame=Id;\n    currphase=phase.WaitP; //Waiting for the player\n  }\n}\n",
  "sourcePath": "C:\\Users\\fraci\\Desktop\\Solidity_Pro\\Solidity_project\\contracts\\GameBoard.sol",
  "compiler": {
    "name": "solc",
    "version": "0.8.20+commit.a1b79de6.Emscripten.clang"
  },
  "schemaVersion": "3.4.14",
  "updatedAt": "2023-06-30T09:30:05.073Z",
  "devdoc": {
    "kind": "dev",
    "methods": {},
    "version": 1
  },
  "userdoc": {
    "kind": "user",
    "methods": {},
    "version": 1
  }
}