{
  "contractName": "GameRule",
  "abi": [
    {
      "anonymous": false,
      "inputs": [
        {
          "indexed": false,
          "internalType": "address",
          "name": "win",
          "type": "address"
        }
      ],
      "name": "CheckWinner",
      "type": "event"
    },
    {
      "anonymous": false,
      "inputs": [
        {
          "indexed": false,
          "internalType": "uint256",
          "name": "id",
          "type": "uint256"
        },
        {
          "indexed": false,
          "internalType": "address",
          "name": "pl",
          "type": "address"
        },
        {
          "indexed": false,
          "internalType": "uint256",
          "name": "dimboard",
          "type": "uint256"
        },
        {
          "indexed": false,
          "internalType": "uint256",
          "name": "boats",
          "type": "uint256"
        }
      ],
      "name": "GameCreated",
      "type": "event"
    },
    {
      "anonymous": false,
      "inputs": [
        {
          "indexed": false,
          "internalType": "address",
          "name": "pl",
          "type": "address"
        }
      ],
      "name": "GameFull",
      "type": "event"
    },
    {
      "anonymous": false,
      "inputs": [
        {
          "indexed": false,
          "internalType": "address",
          "name": "pl1",
          "type": "address"
        },
        {
          "indexed": false,
          "internalType": "address",
          "name": "pl2",
          "type": "address"
        },
        {
          "indexed": false,
          "internalType": "uint256",
          "name": "dimboard",
          "type": "uint256"
        },
        {
          "indexed": false,
          "internalType": "uint256",
          "name": "boats",
          "type": "uint256"
        }
      ],
      "name": "GameJoin",
      "type": "event"
    },
    {
      "anonymous": false,
      "inputs": [
        {
          "indexed": false,
          "internalType": "address",
          "name": "pl1",
          "type": "address"
        },
        {
          "indexed": false,
          "internalType": "address",
          "name": "pl2",
          "type": "address"
        },
        {
          "indexed": false,
          "internalType": "uint256",
          "name": "Amount",
          "type": "uint256"
        }
      ],
      "name": "GameStart",
      "type": "event"
    },
    {
      "anonymous": false,
      "inputs": [
        {
          "indexed": false,
          "internalType": "address",
          "name": "pl1",
          "type": "address"
        },
        {
          "indexed": false,
          "internalType": "address",
          "name": "pl2",
          "type": "address"
        },
        {
          "indexed": false,
          "internalType": "uint256",
          "name": "dimboard",
          "type": "uint256"
        },
        {
          "indexed": false,
          "internalType": "uint256",
          "name": "boats",
          "type": "uint256"
        },
        {
          "indexed": false,
          "internalType": "uint256",
          "name": "Id",
          "type": "uint256"
        }
      ],
      "name": "GamerndJoin",
      "type": "event"
    },
    {
      "anonymous": false,
      "inputs": [
        {
          "indexed": false,
          "internalType": "address",
          "name": "pl1",
          "type": "address"
        },
        {
          "indexed": false,
          "internalType": "address",
          "name": "pl2",
          "type": "address"
        }
      ],
      "name": "NotEqualAmnt",
      "type": "event"
    },
    {
      "anonymous": false,
      "inputs": [
        {
          "indexed": false,
          "internalType": "uint8",
          "name": "pos",
          "type": "uint8"
        },
        {
          "indexed": false,
          "internalType": "address",
          "name": "opp",
          "type": "address"
        },
        {
          "indexed": false,
          "internalType": "uint8",
          "name": "resutlShot",
          "type": "uint8"
        }
      ],
      "name": "Resultshot",
      "type": "event"
    },
    {
      "anonymous": false,
      "inputs": [
        {
          "indexed": false,
          "internalType": "address",
          "name": "pl",
          "type": "address"
        },
        {
          "indexed": false,
          "internalType": "uint8",
          "name": "pos",
          "type": "uint8"
        }
      ],
      "name": "ShotTaken",
      "type": "event"
    },
    {
      "anonymous": false,
      "inputs": [
        {
          "indexed": false,
          "internalType": "address",
          "name": "plt",
          "type": "address"
        }
      ],
      "name": "Startshoting",
      "type": "event"
    },
    {
      "anonymous": false,
      "inputs": [
        {
          "indexed": false,
          "internalType": "address",
          "name": "win",
          "type": "address"
        }
      ],
      "name": "Winner",
      "type": "event"
    },
    {
      "inputs": [
        {
          "internalType": "uint256",
          "name": "Id",
          "type": "uint256"
        }
      ],
      "name": "GetTocheck",
      "outputs": [
        {
          "internalType": "uint256[]",
          "name": "",
          "type": "uint256[]"
        }
      ],
      "stateMutability": "view",
      "type": "function",
      "constant": true
    },
    {
      "inputs": [
        {
          "internalType": "uint8",
          "name": "Boardim",
          "type": "uint8"
        },
        {
          "internalType": "uint8",
          "name": "Boats",
          "type": "uint8"
        }
      ],
      "name": "createGame",
      "outputs": [],
      "stateMutability": "nonpayable",
      "type": "function"
    },
    {
      "inputs": [
        {
          "internalType": "uint256",
          "name": "Id",
          "type": "uint256"
        }
      ],
      "name": "joinGame",
      "outputs": [],
      "stateMutability": "nonpayable",
      "type": "function"
    },
    {
      "inputs": [],
      "name": "joinrndGame",
      "outputs": [],
      "stateMutability": "nonpayable",
      "type": "function"
    },
    {
      "inputs": [
        {
          "internalType": "uint256",
          "name": "Id",
          "type": "uint256"
        }
      ],
      "name": "proposedBet",
      "outputs": [],
      "stateMutability": "payable",
      "type": "function",
      "payable": true
    },
    {
      "inputs": [
        {
          "internalType": "uint256",
          "name": "Id",
          "type": "uint256"
        },
        {
          "internalType": "uint8",
          "name": "pos",
          "type": "uint8"
        }
      ],
      "name": "attack",
      "outputs": [],
      "stateMutability": "nonpayable",
      "type": "function"
    },
    {
      "inputs": [
        {
          "internalType": "uint32",
          "name": "Id",
          "type": "uint32"
        },
        {
          "internalType": "bytes32[]",
          "name": "proof",
          "type": "bytes32[]"
        },
        {
          "internalType": "uint8",
          "name": "leaves",
          "type": "uint8"
        },
        {
          "internalType": "uint8",
          "name": "pos",
          "type": "uint8"
        },
        {
          "internalType": "uint8",
          "name": "shotr",
          "type": "uint8"
        }
      ],
      "name": "verify",
      "outputs": [],
      "stateMutability": "nonpayable",
      "type": "function"
    },
    {
      "inputs": [
        {
          "internalType": "uint256",
          "name": "Id",
          "type": "uint256"
        }
      ],
      "name": "Playerafk",
      "outputs": [],
      "stateMutability": "nonpayable",
      "type": "function"
    },
    {
      "inputs": [
        {
          "internalType": "uint256",
          "name": "Id",
          "type": "uint256"
        },
        {
          "internalType": "bytes32[]",
          "name": "proof",
          "type": "bytes32[]"
        },
        {
          "internalType": "bool[]",
          "name": "proofFlags",
          "type": "bool[]"
        },
        {
          "internalType": "bytes32[]",
          "name": "leaves",
          "type": "bytes32[]"
        },
        {
          "internalType": "uint8[]",
          "name": "values",
          "type": "uint8[]"
        }
      ],
      "name": "verifyWin",
      "outputs": [],
      "stateMutability": "nonpayable",
      "type": "function"
    },
    {
      "inputs": [
        {
          "internalType": "uint256",
          "name": "Id",
          "type": "uint256"
        },
        {
          "internalType": "bytes32",
          "name": "Rootm",
          "type": "bytes32"
        }
      ],
      "name": "storeRoot",
      "outputs": [],
      "stateMutability": "nonpayable",
      "type": "function"
    }
  ],
  "bytecode": "0x608060405260008055600060015561271060025534801561001f57600080fd5b5061577980620000306000396000f3fe6080604052600436106100915760003560e01c806396d4dd7a1161005957806396d4dd7a146101585780639f3aa7f214610181578063b4ab0950146101aa578063bf2cb40f146101d3578063efaa55a0146101fc57610091565b80630a3f297a146100965780631346a76d146100b2578063137bfc42146100db57806393dfbe65146100f2578063943856b21461012f575b600080fd5b6100b060048036038101906100ab91906144f8565b610225565b005b3480156100be57600080fd5b506100d960048036038101906100d4919061455e565b610be0565b005b3480156100e757600080fd5b506100f06110fb565b005b3480156100fe57600080fd5b50610119600480360381019061011491906144f8565b611462565b604051610126919061465c565b60405180910390f35b34801561013b57600080fd5b50610156600480360381019061015191906149cb565b611858565b005b34801561016457600080fd5b5061017f600480360381019061017a9190614ab6565b612096565b005b34801561018d57600080fd5b506101a860048036038101906101a39190614af6565b6127e7565b005b3480156101b657600080fd5b506101d160048036038101906101cc91906144f8565b612f07565b005b3480156101df57600080fd5b506101fa60048036038101906101f59190614b72565b6132ed565b005b34801561020857600080fd5b50610223600480360381019061021e91906144f8565b6139b0565b005b8060006004600083815260200190815260200160002060405180610120016040529081600082016040518060a00160405290816000820160009054906101000a900473ffffffffffffffffffffffffffffffffffffffff1673ffffffffffffffffffffffffffffffffffffffff1673ffffffffffffffffffffffffffffffffffffffff1681526020016001820154815260200160028201548152602001600382015481526020016004820180548060200260200160405190810160405280929190818152602001828054801561034f57602002820191906000526020600020906000905b82829054906101000a900460ff16600381111561032957610328614c09565b5b815260200190600101906020826000010492830192600103820291508084116103095790505b5050505050815250508152602001600582016040518060a00160405290816000820160009054906101000a900473ffffffffffffffffffffffffffffffffffffffff1673ffffffffffffffffffffffffffffffffffffffff1673ffffffffffffffffffffffffffffffffffffffff1681526020016001820154815260200160028201548152602001600382015481526020016004820180548060200260200160405190810160405280929190818152602001828054801561046457602002820191906000526020600020906000905b82829054906101000a900460ff16600381111561043e5761043d614c09565b5b8152602001906001019060208260000104928301926001038202915080841161041e5790505b5050505050815250508152602001600a820160009054906101000a900460ff16600581111561049657610495614c09565b5b60058111156104a8576104a7614c09565b5b8152602001600a820160019054906101000a900473ffffffffffffffffffffffffffffffffffffffff1673ffffffffffffffffffffffffffffffffffffffff1673ffffffffffffffffffffffffffffffffffffffff168152602001600a820160159054906101000a900460ff16151515158152602001600b8201548152602001600c820160009054906101000a900460ff1660ff1660ff168152602001600c820160019054906101000a900460ff1660ff1660ff168152602001600d8201548152505090506001600581111561058157610580614c09565b5b8160400151600581111561059857610597614c09565b5b146105d8576040517f08c379a00000000000000000000000000000000000000000000000000000000081526004016105cf90614c95565b60405180910390fd5b600115156003600085815260200190815260200160002060009054906101000a900460ff16151503610bdb573373ffffffffffffffffffffffffffffffffffffffff166004600085815260200190815260200160002060000160000160009054906101000a900473ffffffffffffffffffffffffffffffffffffffff1673ffffffffffffffffffffffffffffffffffffffff160361070a5760006004600085815260200190815260200160002060000160030154146106cc576040517f08c379a00000000000000000000000000000000000000000000000000000000081526004016106c390614d01565b60405180910390fd5b3460046000858152602001908152602001600020600001600301819055504360046000858152602001908152602001600020600d01819055506107a0565b6000600460008581526020019081526020016000206005016003015414610766576040517f08c379a000000000000000000000000000000000000000000000000000000000815260040161075d90614d01565b60405180910390fd5b3460046000858152602001908152602001600020600501600301819055504360046000858152602001908152602001600020600d01819055505b60006004600085815260200190815260200160002060000160030154141580156107e457506000600460008581526020019081526020016000206005016003015414155b15610bda5760046000848152602001908152602001600020600501600301546004600085815260200190815260200160002060000160030154036109c357600460008481526020019081526020016000206005016003015460046000858152602001908152602001600020600001600301546108609190614d50565b60046000858152602001908152602001600020600b0181905550600260046000858152602001908152602001600020600a0160006101000a81548160ff021916908360058111156108b4576108b3614c09565b5b02179055506000801b60046000858152602001908152602001600020600001600101819055506000801b60046000858152602001908152602001600020600501600101819055507ff7750bebc6a1d050dec98239cfc17dbb80b7469bdbf2a73da0c8023a4f46f7726004600085815260200190815260200160002060000160000160009054906101000a900473ffffffffffffffffffffffffffffffffffffffff166004600086815260200190815260200160002060050160000160009054906101000a900473ffffffffffffffffffffffffffffffffffffffff1660046000878152602001908152602001600020600b01546040516109b693929190614e34565b60405180910390a1610bd9565b7fb29c835815da512bad08296bda505d06538936bbcb5961077fb04d25d1e5e1c56004600085815260200190815260200160002060000160000160009054906101000a900473ffffffffffffffffffffffffffffffffffffffff166004600086815260200190815260200160002060050160000160009054906101000a900473ffffffffffffffffffffffffffffffffffffffff16604051610a66929190614e6b565b60405180910390a16004600084815260200190815260200160002060000160000160009054906101000a900473ffffffffffffffffffffffffffffffffffffffff1673ffffffffffffffffffffffffffffffffffffffff166108fc60046000868152602001908152602001600020600b01549081150290604051600060405180830381858888f19350505050158015610b03573d6000803e3d6000fd5b506004600084815260200190815260200160002060050160000160009054906101000a900473ffffffffffffffffffffffffffffffffffffffff1673ffffffffffffffffffffffffffffffffffffffff166108fc60046000868152602001908152602001600020600b01549081150290604051600060405180830381858888f19350505050158015610b99573d6000803e3d6000fd5b5060006004600085815260200190815260200160002060000160030181905550600060046000858152602001908152602001600020600501600301819055505b5b5b505050565b6000610beb33613dcc565b9050610bf561430b565b610bfd614393565b610c05614393565b33826000019073ffffffffffffffffffffffffffffffffffffffff16908173ffffffffffffffffffffffffffffffffffffffff168152505060008260600181815250508560ff1667ffffffffffffffff811115610c6557610c64614694565b5b604051908082528060200260200182016040528015610c935781602001602082028036833780820191505090505b5082608001819052508560ff1667ffffffffffffffff811115610cb957610cb8614694565b5b604051908082528060200260200182016040528015610ce75781602001602082028036833780820191505090505b50816080018190525060005b8660ff16811015610d5c57600383608001518281518110610d1757610d16614e94565b5b60200260200101906003811115610d3157610d30614c09565b5b90816003811115610d4557610d44614c09565b5b815250508080610d5490614ec3565b915050610cf3565b5060005b8660ff16811015610dc957600382608001518281518110610d8457610d83614e94565b5b60200260200101906003811115610d9e57610d9d614c09565b5b90816003811115610db257610db1614c09565b5b815250508080610dc190614ec3565b915050610d60565b508183600001819052508083602001819052506001836080019015159081151581525050600083604001906005811115610e0657610e05614c09565b5b90816005811115610e1a57610e19614c09565b5b81525050858360c0019060ff16908160ff1681525050848360e0019060ff16908160ff1681525050826004600086815260200190815260200160002060008201518160000160008201518160000160006101000a81548173ffffffffffffffffffffffffffffffffffffffff021916908373ffffffffffffffffffffffffffffffffffffffff1602179055506020820151816001015560408201518160020155606082015181600301556080820151816004019080519060200190610ee09291906143db565b50505060208201518160050160008201518160000160006101000a81548173ffffffffffffffffffffffffffffffffffffffff021916908373ffffffffffffffffffffffffffffffffffffffff1602179055506020820151816001015560408201518160020155606082015181600301556080820151816004019080519060200190610f6d9291906143db565b505050604082015181600a0160006101000a81548160ff02191690836005811115610f9b57610f9a614c09565b5b0217905550606082015181600a0160016101000a81548173ffffffffffffffffffffffffffffffffffffffff021916908373ffffffffffffffffffffffffffffffffffffffff160217905550608082015181600a0160156101000a81548160ff02191690831515021790555060a082015181600b015560c082015181600c0160006101000a81548160ff021916908360ff16021790555060e082015181600c0160016101000a81548160ff021916908360ff16021790555061010082015181600d015590505060006003600086815260200190815260200160002060006101000a81548160ff02191690831515021790555060058490806001815401808255809150506001900390600052602060002001600090919091909150557f7ed9b48d83e08a25a1572b27a365dfb386da7860c996e684e541e3433b792147843388886040516110eb9493929190614f5d565b60405180910390a1505050505050565b600060058054905003611143576040517f08c379a000000000000000000000000000000000000000000000000000000000815260040161113a90614fee565b60405180910390fd5b6000600580549050423360015460405160200161116293929190615077565b6040516020818303038152906040528051906020012060001c61118591906150e3565b90506001600081548092919061119a90614ec3565b91905055506000600582815481106111b5576111b4614e94565b5b90600052602060002001549050336004600083815260200190815260200160002060050160000160006101000a81548173ffffffffffffffffffffffffffffffffffffffff021916908373ffffffffffffffffffffffffffffffffffffffff160217905550600160046000838152602001908152602001600020600a0160006101000a81548160ff0219169083600581111561125457611253614c09565b5b021790555060016003600083815260200190815260200160002060006101000a81548160ff0219169083151502179055506005828154811061129957611298614e94565b5b906000526020600020016000905560016005805490506112b99190615114565b82036112ec5760058054806112d1576112d0615148565b5b60019003818190600052602060002001600090559055611367565b600560016005805490506113009190615114565b8154811061131157611310614e94565b5b9060005260206000200154600583815481106113305761132f614e94565b5b906000526020600020018190555060058054806113505761134f615148565b5b600190038181906000526020600020016000905590555b7fcaab0c624cfd9bbbaf97037f0dc26779add4879b1c4879ad89972c7f5a162fc36004600083815260200190815260200160002060000160000160009054906101000a900473ffffffffffffffffffffffffffffffffffffffff166004600084815260200190815260200160002060050160000160009054906101000a900473ffffffffffffffffffffffffffffffffffffffff1660046000858152602001908152602001600020600c0160009054906101000a900460ff1660046000868152602001908152602001600020600c0160019054906101000a900460ff1685604051611456959493929190615177565b60405180910390a15050565b606061146c614393565b600060046000858152602001908152602001600020600c0160009054906101000a900460ff1660ff1667ffffffffffffffff8111156114ae576114ad614694565b5b6040519080825280602002602001820160405280156114dc5781602001602082028036833780820191505090505b5090503373ffffffffffffffffffffffffffffffffffffffff166004600086815260200190815260200160002060000160000160009054906101000a900473ffffffffffffffffffffffffffffffffffffffff1673ffffffffffffffffffffffffffffffffffffffff160361167457600460008581526020019081526020016000206005016040518060a00160405290816000820160009054906101000a900473ffffffffffffffffffffffffffffffffffffffff1673ffffffffffffffffffffffffffffffffffffffff1673ffffffffffffffffffffffffffffffffffffffff1681526020016001820154815260200160028201548152602001600382015481526020016004820180548060200260200160405190810160405280929190818152602001828054801561166457602002820191906000526020600020906000905b82829054906101000a900460ff16600381111561163e5761163d614c09565b5b8152602001906001019060208260000104928301926001038202915080841161161e5790505b5050505050815250509150611799565b600460008581526020019081526020016000206000016040518060a00160405290816000820160009054906101000a900473ffffffffffffffffffffffffffffffffffffffff1673ffffffffffffffffffffffffffffffffffffffff1673ffffffffffffffffffffffffffffffffffffffff1681526020016001820154815260200160028201548152602001600382015481526020016004820180548060200260200160405190810160405280929190818152602001828054801561178d57602002820191906000526020600020906000905b82829054906101000a900460ff16600381111561176757611766614c09565b5b815260200190600101906020826000010492830192600103820291508084116117475790505b50505050508152505091505b60005b82608001515181101561184d576003808111156117bc576117bb614c09565b5b836080015182815181106117d3576117d2614e94565b5b602002602001015160038111156117ed576117ec614c09565b5b0361181857600182828151811061180757611806614e94565b5b60200260200101818152505061183a565b600082828151811061182d5761182c614e94565b5b6020026020010181815250505b808061184590614ec3565b91505061179c565b508092505050919050565b6000806001905060008060606000600460008c815260200190815260200160002060405180610120016040529081600082016040518060a00160405290816000820160009054906101000a900473ffffffffffffffffffffffffffffffffffffffff1673ffffffffffffffffffffffffffffffffffffffff1673ffffffffffffffffffffffffffffffffffffffff1681526020016001820154815260200160028201548152602001600382015481526020016004820180548060200260200160405190810160405280929190818152602001828054801561198d57602002820191906000526020600020906000905b82829054906101000a900460ff16600381111561196757611966614c09565b5b815260200190600101906020826000010492830192600103820291508084116119475790505b5050505050815250508152602001600582016040518060a00160405290816000820160009054906101000a900473ffffffffffffffffffffffffffffffffffffffff1673ffffffffffffffffffffffffffffffffffffffff1673ffffffffffffffffffffffffffffffffffffffff16815260200160018201548152602001600282015481526020016003820154815260200160048201805480602002602001604051908101604052809291908181526020018280548015611aa257602002820191906000526020600020906000905b82829054906101000a900460ff166003811115611a7c57611a7b614c09565b5b81526020019060010190602082600001049283019260010382029150808411611a5c5790505b5050505050815250508152602001600a820160009054906101000a900460ff166005811115611ad457611ad3614c09565b5b6005811115611ae657611ae5614c09565b5b8152602001600a820160019054906101000a900473ffffffffffffffffffffffffffffffffffffffff1673ffffffffffffffffffffffffffffffffffffffff1673ffffffffffffffffffffffffffffffffffffffff168152602001600a820160159054906101000a900460ff16151515158152602001600b8201548152602001600c820160009054906101000a900460ff1660ff1660ff168152602001600c820160019054906101000a900460ff1660ff1660ff168152602001600d8201548152505090506000600460008d8152602001908152602001600020600b015490503373ffffffffffffffffffffffffffffffffffffffff1682600001516000015173ffffffffffffffffffffffffffffffffffffffff1603611c2757816000015160200151935081602001516000015194508160200151608001519250611c49565b8160200151602001519350816000015160000151945081600001516080015192505b611c558b8b868c613e29565b955060005b8851811015611cf5576001898281518110611c7857611c77614e94565b5b602002602001015160ff1603611ce2578780611c9390614ec3565b98505060016003811115611caa57611ca9614c09565b5b848281518110611cbd57611cbc614e94565b5b60200260200101516003811115611cd757611cd6614c09565b5b03611ce157600096505b5b8080611ced90614ec3565b915050611c5a565b506000151586151503611dcb577f745c90b656b4aafe296c8ca35aeacfe56cb96c90e1d320e5da643fff1051b6c085604051611d3191906151ca565b60405180910390a16005600460008e8152602001908152602001600020600a0160006101000a81548160ff02191690836005811115611d7357611d72614c09565b5b02179055508473ffffffffffffffffffffffffffffffffffffffff166108fc829081150290604051600060405180830381858888f19350505050158015611dbe573d6000803e3d6000fd5b505050505050505061208f565b600460008d8152602001908152602001600020600c0160019054906101000a900460ff1660ff168714611ec1577f745c90b656b4aafe296c8ca35aeacfe56cb96c90e1d320e5da643fff1051b6c085604051611e2791906151ca565b60405180910390a16005600460008e8152602001908152602001600020600a0160006101000a81548160ff02191690836005811115611e6957611e68614c09565b5b02179055508473ffffffffffffffffffffffffffffffffffffffff166108fc829081150290604051600060405180830381858888f19350505050158015611eb4573d6000803e3d6000fd5b505050505050505061208f565b600460008d8152602001908152602001600020600c0160009054906101000a900460ff1660ff16885114611fb8577f745c90b656b4aafe296c8ca35aeacfe56cb96c90e1d320e5da643fff1051b6c085604051611f1e91906151ca565b60405180910390a16005600460008e8152602001908152602001600020600a0160006101000a81548160ff02191690836005811115611f6057611f5f614c09565b5b02179055508473ffffffffffffffffffffffffffffffffffffffff166108fc829081150290604051600060405180830381858888f19350505050158015611fab573d6000803e3d6000fd5b505050505050505061208f565b8515612087577f745c90b656b4aafe296c8ca35aeacfe56cb96c90e1d320e5da643fff1051b6c033604051611fed91906151ca565b60405180910390a16005600460008e8152602001908152602001600020600a0160006101000a81548160ff0219169083600581111561202f5761202e614c09565b5b02179055503373ffffffffffffffffffffffffffffffffffffffff166108fc829081150290604051600060405180830381858888f1935050505015801561207a573d6000803e3d6000fd5b505050505050505061208f565b505050505050505b5050505050565b8160006004600083815260200190815260200160002060405180610120016040529081600082016040518060a00160405290816000820160009054906101000a900473ffffffffffffffffffffffffffffffffffffffff1673ffffffffffffffffffffffffffffffffffffffff1673ffffffffffffffffffffffffffffffffffffffff168152602001600182015481526020016002820154815260200160038201548152602001600482018054806020026020016040519081016040528092919081815260200182805480156121c057602002820191906000526020600020906000905b82829054906101000a900460ff16600381111561219a57612199614c09565b5b8152602001906001019060208260000104928301926001038202915080841161217a5790505b5050505050815250508152602001600582016040518060a00160405290816000820160009054906101000a900473ffffffffffffffffffffffffffffffffffffffff1673ffffffffffffffffffffffffffffffffffffffff1673ffffffffffffffffffffffffffffffffffffffff168152602001600182015481526020016002820154815260200160038201548152602001600482018054806020026020016040519081016040528092919081815260200182805480156122d557602002820191906000526020600020906000905b82829054906101000a900460ff1660038111156122af576122ae614c09565b5b8152602001906001019060208260000104928301926001038202915080841161228f5790505b5050505050815250508152602001600a820160009054906101000a900460ff16600581111561230757612306614c09565b5b600581111561231957612318614c09565b5b8152602001600a820160019054906101000a900473ffffffffffffffffffffffffffffffffffffffff1673ffffffffffffffffffffffffffffffffffffffff1673ffffffffffffffffffffffffffffffffffffffff168152602001600a820160159054906101000a900460ff16151515158152602001600b8201548152602001600c820160009054906101000a900460ff1660ff1660ff168152602001600c820160019054906101000a900460ff1660ff1660ff168152602001600d820154815250509050600260058111156123f2576123f1614c09565b5b8160400151600581111561240957612408614c09565b5b14612449576040517f08c379a000000000000000000000000000000000000000000000000000000000815260040161244090614c95565b60405180910390fd5b3373ffffffffffffffffffffffffffffffffffffffff166004600086815260200190815260200160002060000160000160009054906101000a900473ffffffffffffffffffffffffffffffffffffffff1673ffffffffffffffffffffffffffffffffffffffff1603612551576000801b600460008681526020019081526020016000206000016001015414612513576040517f08c379a000000000000000000000000000000000000000000000000000000000815260040161250a90615231565b60405180910390fd5b8260046000868152602001908152602001600020600001600101819055504360046000868152602001908152602001600020600d0181905550612656565b3373ffffffffffffffffffffffffffffffffffffffff166004600086815260200190815260200160002060050160000160009054906101000a900473ffffffffffffffffffffffffffffffffffffffff1673ffffffffffffffffffffffffffffffffffffffff1603612655576000801b60046000868152602001908152602001600020600501600101541461261b576040517f08c379a000000000000000000000000000000000000000000000000000000000815260040161261290615231565b60405180910390fd5b8260046000868152602001908152602001600020600501600101819055504360046000868152602001908152602001600020600d01819055505b5b6000801b60046000868152602001908152602001600020600001600101541415801561269e57506000801b600460008681526020019081526020016000206005016001015414155b156127e157600360046000868152602001908152602001600020600a0160006101000a81548160ff021916908360058111156126dd576126dc614c09565b5b02179055506004600085815260200190815260200160002060000160000160009054906101000a900473ffffffffffffffffffffffffffffffffffffffff1660046000868152602001908152602001600020600a0160016101000a81548173ffffffffffffffffffffffffffffffffffffffff021916908373ffffffffffffffffffffffffffffffffffffffff1602179055507f9292d1d8edf12766944c9c9489baf192a01310cb363f24a8a378d5cb0cae36f96004600086815260200190815260200160002060000160000160009054906101000a900473ffffffffffffffffffffffffffffffffffffffff166040516127d89190615251565b60405180910390a15b50505050565b81816127f1614393565b3373ffffffffffffffffffffffffffffffffffffffff166004600085815260200190815260200160002060000160000160009054906101000a900473ffffffffffffffffffffffffffffffffffffffff1673ffffffffffffffffffffffffffffffffffffffff160361298657600460008481526020019081526020016000206000016040518060a00160405290816000820160009054906101000a900473ffffffffffffffffffffffffffffffffffffffff1673ffffffffffffffffffffffffffffffffffffffff1673ffffffffffffffffffffffffffffffffffffffff1681526020016001820154815260200160028201548152602001600382015481526020016004820180548060200260200160405190810160405280929190818152602001828054801561297657602002820191906000526020600020906000905b82829054906101000a900460ff1660038111156129505761294f614c09565b5b815260200190600101906020826000010492830192600103820291508084116129305790505b5050505050815250509050612aab565b600460008481526020019081526020016000206005016040518060a00160405290816000820160009054906101000a900473ffffffffffffffffffffffffffffffffffffffff1673ffffffffffffffffffffffffffffffffffffffff1673ffffffffffffffffffffffffffffffffffffffff16815260200160018201548152602001600282015481526020016003820154815260200160048201805480602002602001604051908101604052809291908181526020018280548015612a9f57602002820191906000526020600020906000905b82829054906101000a900460ff166003811115612a7957612a78614c09565b5b81526020019060010190602082600001049283019260010382029150808411612a595790505b50505050508152505090505b600380811115612abe57612abd614c09565b5b81608001518360ff1681518110612ad857612ad7614e94565b5b60200260200101516003811115612af257612af1614c09565b5b14612b32576040517f08c379a0000000000000000000000000000000000000000000000000000000008152600401612b29906152de565b60405180910390fd5b6001151560046000878152602001908152602001600020600a0160159054906101000a900460ff16151503612c595760036005811115612b7557612b74614c09565b5b60046000878152602001908152602001600020600a0160009054906101000a900460ff166005811115612bab57612baa614c09565b5b14612beb576040517f08c379a0000000000000000000000000000000000000000000000000000000008152600401612be29061534a565b60405180910390fd5b600060046000878152602001908152602001600020600a0160156101000a81548160ff0219169083151502179055506004806000878152602001908152602001600020600a0160006101000a81548160ff02191690836005811115612c5357612c52614c09565b5b02179055505b3373ffffffffffffffffffffffffffffffffffffffff1660046000878152602001908152602001600020600a0160019054906101000a900473ffffffffffffffffffffffffffffffffffffffff1673ffffffffffffffffffffffffffffffffffffffff1614612cfd576040517f08c379a0000000000000000000000000000000000000000000000000000000008152600401612cf4906153b6565b60405180910390fd5b60046000868152602001908152602001600020600c0160009054906101000a900460ff1660ff168460ff1610612d68576040517f08c379a0000000000000000000000000000000000000000000000000000000008152600401612d5f90615422565b60405180910390fd5b3373ffffffffffffffffffffffffffffffffffffffff166004600087815260200190815260200160002060000160000160009054906101000a900473ffffffffffffffffffffffffffffffffffffffff1673ffffffffffffffffffffffffffffffffffffffff1603612e42576002600460008781526020019081526020016000206000016004018560ff1681548110612e0457612e03614e94565b5b90600052602060002090602091828204019190066101000a81548160ff02191690836003811115612e3857612e37614c09565b5b0217905550612eac565b6002600460008781526020019081526020016000206005016004018560ff1681548110612e7257612e71614e94565b5b90600052602060002090602091828204019190066101000a81548160ff02191690836003811115612ea657612ea5614c09565b5b02179055505b4360046000878152602001908152602001600020600d01819055507f665e09da1c684bb4ada2b5c04fe0bb20328ca455aae1928734e0a40dcf0e099e3385604051612ef8929190615451565b60405180910390a15050505050565b6000612f2a60046000848152602001908152602001600020600d01546003613e42565b9050804311612f6e576040517f08c379a0000000000000000000000000000000000000000000000000000000008152600401612f65906154c6565b60405180910390fd5b60003373ffffffffffffffffffffffffffffffffffffffff166004600085815260200190815260200160002060000160000160009054906101000a900473ffffffffffffffffffffffffffffffffffffffff1673ffffffffffffffffffffffffffffffffffffffff160361301d576004600084815260200190815260200160002060050160000160009054906101000a900473ffffffffffffffffffffffffffffffffffffffff1690506130c7565b3373ffffffffffffffffffffffffffffffffffffffff166004600085815260200190815260200160002060050160000160009054906101000a900473ffffffffffffffffffffffffffffffffffffffff1673ffffffffffffffffffffffffffffffffffffffff16036130c6576004600084815260200190815260200160002060000160000160009054906101000a900473ffffffffffffffffffffffffffffffffffffffff1690505b5b600160058111156130db576130da614c09565b5b60046000858152602001908152602001600020600a0160009054906101000a900460ff16600581111561311157613110614c09565b5b036131af577f745c90b656b4aafe296c8ca35aeacfe56cb96c90e1d320e5da643fff1051b6c03360405161314591906151ca565b60405180910390a13373ffffffffffffffffffffffffffffffffffffffff166108fc60046000868152602001908152602001600020600b01549081150290604051600060405180830381858888f193505050501580156131a9573d6000803e3d6000fd5b506132e8565b3373ffffffffffffffffffffffffffffffffffffffff1660046000858152602001908152602001600020600a0160019054906101000a900473ffffffffffffffffffffffffffffffffffffffff1673ffffffffffffffffffffffffffffffffffffffff1603613253576040517f08c379a000000000000000000000000000000000000000000000000000000000815260040161324a90615558565b60405180910390fd5b7f745c90b656b4aafe296c8ca35aeacfe56cb96c90e1d320e5da643fff1051b6c03360405161328291906151ca565b60405180910390a13373ffffffffffffffffffffffffffffffffffffffff166108fc60046000868152602001908152602001600020600b01549081150290604051600060405180830381858888f193505050501580156132e6573d6000803e3d6000fd5b505b505050565b6000806000803373ffffffffffffffffffffffffffffffffffffffff16600460008b63ffffffff16815260200190815260200160002060000160000160009054906101000a900473ffffffffffffffffffffffffffffffffffffffff1673ffffffffffffffffffffffffffffffffffffffff16036133ce57600460008a63ffffffff168152602001908152602001600020600001600101549250600460008a63ffffffff16815260200190815260200160002060050160000160009054906101000a900473ffffffffffffffffffffffffffffffffffffffff169050613433565b600460008a63ffffffff168152602001908152602001600020600501600101549250600460008a63ffffffff16815260200190815260200160002060000160000160009054906101000a900473ffffffffffffffffffffffffffffffffffffffff1690505b8660405160200161344491906155ae565b604051602081830303815290604052805190602001209150613467888484613e58565b9350831561390a5733600460008b63ffffffff168152602001908152602001600020600a0160016101000a81548173ffffffffffffffffffffffffffffffffffffffff021916908373ffffffffffffffffffffffffffffffffffffffff16021790555060018560ff1603613773573373ffffffffffffffffffffffffffffffffffffffff16600460008b63ffffffff16815260200190815260200160002060000160000160009054906101000a900473ffffffffffffffffffffffffffffffffffffffff1673ffffffffffffffffffffffffffffffffffffffff160361363f576000600460008b63ffffffff1681526020019081526020016000206005016004018760ff168154811061357d5761357c614e94565b5b90600052602060002090602091828204019190066101000a81548160ff021916908360038111156135b1576135b0614c09565b5b0217905550600460008a63ffffffff16815260200190815260200160002060050160020160008154809291906135e690614ec3565b919050555061363a8963ffffffff16600460008c63ffffffff16815260200190815260200160002060050160000160009054906101000a900473ffffffffffffffffffffffffffffffffffffffff16613e6f565b613733565b6000600460008b63ffffffff1681526020019081526020016000206000016004018760ff168154811061367557613674614e94565b5b90600052602060002090602091828204019190066101000a81548160ff021916908360038111156136a9576136a8614c09565b5b0217905550600460008a63ffffffff16815260200190815260200160002060000160020160008154809291906136de90614ec3565b91905055506137328963ffffffff16600460008c63ffffffff16815260200190815260200160002060000160000160009054906101000a900473ffffffffffffffffffffffffffffffffffffffff16613e6f565b5b7fad576c2960f97ea2e2b8045df2457aecda21eb484fa0a2dce91bc8f4c2ca28c4868287604051613766939291906155c9565b60405180910390a1613905565b3373ffffffffffffffffffffffffffffffffffffffff16600460008b63ffffffff16815260200190815260200160002060000160000160009054906101000a900473ffffffffffffffffffffffffffffffffffffffff1673ffffffffffffffffffffffffffffffffffffffff1603613859576001600460008b63ffffffff1681526020019081526020016000206005016004018760ff168154811061381b5761381a614e94565b5b90600052602060002090602091828204019190066101000a81548160ff0219169083600381111561384f5761384e614c09565b5b02179055506138c9565b6001600460008b63ffffffff1681526020019081526020016000206000016004018760ff168154811061388f5761388e614e94565b5b90600052602060002090602091828204019190066101000a81548160ff021916908360038111156138c3576138c2614c09565b5b02179055505b7fad576c2960f97ea2e2b8045df2457aecda21eb484fa0a2dce91bc8f4c2ca28c48682876040516138fc939291906155c9565b60405180910390a15b6139a5565b7f745c90b656b4aafe296c8ca35aeacfe56cb96c90e1d320e5da643fff1051b6c0816040516139399190615251565b60405180910390a18073ffffffffffffffffffffffffffffffffffffffff166108fc600460008c63ffffffff168152602001908152602001600020600b01549081150290604051600060405180830381858888f193505050501580156139a3573d6000803e3d6000fd5b505b505050505050505050565b60006004600083815260200190815260200160002060000160000160009054906101000a900473ffffffffffffffffffffffffffffffffffffffff1673ffffffffffffffffffffffffffffffffffffffff163373ffffffffffffffffffffffffffffffffffffffff1603613a59576040517f08c379a0000000000000000000000000000000000000000000000000000000008152600401613a5090615672565b60405180910390fd5b600115156003600084815260200190815260200160002060009054906101000a900460ff16151503613ac1577fcdc73f6e3d36f0a8d8d1fbc43bb508cf2550d675fc1344e2f274d38159d8fc2433604051613ab491906151ca565b60405180910390a1613dc8565b60016003600084815260200190815260200160002060006101000a81548160ff021916908315150217905550336004600084815260200190815260200160002060050160000160006101000a81548173ffffffffffffffffffffffffffffffffffffffff021916908373ffffffffffffffffffffffffffffffffffffffff16021790555060006004600084815260200190815260200160002060050160030181905550600160046000848152602001908152602001600020600a0160006101000a81548160ff02191690836005811115613b9e57613b9d614c09565b5b021790555060005b600580549050811015613bef578260058281548110613bc857613bc7614e94565b5b906000526020600020015403613bdc578091505b8080613be790614ec3565b915050613ba6565b5060058181548110613c0457613c03614e94565b5b90600052602060002001600090556001600580549050613c249190615114565b8103613c57576005805480613c3c57613c3b615148565b5b60019003818190600052602060002001600090559055613cd2565b60056001600580549050613c6b9190615114565b81548110613c7c57613c7b614e94565b5b906000526020600020015460058281548110613c9b57613c9a614e94565b5b90600052602060002001819055506005805480613cbb57613cba615148565b5b600190038181906000526020600020016000905590555b7f754829169acf4a758abc897ebe1978d1d43e54170745b4aff8753010a441c6656004600084815260200190815260200160002060000160000160009054906101000a900473ffffffffffffffffffffffffffffffffffffffff166004600085815260200190815260200160002060050160000160009054906101000a900473ffffffffffffffffffffffffffffffffffffffff1660046000868152602001908152602001600020600c0160009054906101000a900460ff1660046000878152602001908152602001600020600c0160019054906101000a900460ff16604051613dbf9493929190615692565b60405180910390a15b5050565b6000806000815480929190613de090614ec3565b91905055506002544283600054604051602001613dff93929190615077565b6040516020818303038152906040528051906020012060001c613e2291906150e3565b9050919050565b600082613e37868685613f8b565b149050949350505050565b60008183613e509190614d50565b905092915050565b600082613e658584614273565b1490509392505050565b600060046000848152602001908152602001600020600c0160019054906101000a900460ff1660ff16905060008273ffffffffffffffffffffffffffffffffffffffff166004600086815260200190815260200160002060000160000160009054906101000a900473ffffffffffffffffffffffffffffffffffffffff1673ffffffffffffffffffffffffffffffffffffffff1603613f295760046000858152602001908152602001600020600001600201549050613f46565b600460008581526020019081526020016000206005016002015490505b818103613f85577f80da53c5ff66d64de07d31db41deff45d3715a7e9385116b0523868f89ac9e9183604051613f7c9190615251565b60405180910390a15b50505050565b600080825190506000855190506000855190508060018385613fad9190614d50565b613fb79190615114565b14613ff7576040517f08c379a0000000000000000000000000000000000000000000000000000000008152600401613fee90615723565b60405180910390fd5b60008167ffffffffffffffff81111561401357614012614694565b5b6040519080825280602002602001820160405280156140415781602001602082028036833780820191505090505b5090506000806000805b8581101561419b5760008885106140885785848061406890614ec3565b95508151811061407b5761407a614e94565b5b60200260200101516140b0565b8a858061409490614ec3565b9650815181106140a7576140a6614e94565b5b60200260200101515b905060008c83815181106140c7576140c6614e94565b5b60200260200101516140ff578d84806140df90614ec3565b9550815181106140f2576140f1614e94565b5b602002602001015161415b565b8986106141325786858061411290614ec3565b96508151811061412557614124614e94565b5b602002602001015161415a565b8b868061413e90614ec3565b97508151811061415157614150614e94565b5b60200260200101515b5b905061416782826142c9565b87848151811061417a57614179614e94565b5b6020026020010181815250505050808061419390614ec3565b91505061404b565b506000851115614213578581146141e7576040517f08c379a00000000000000000000000000000000000000000000000000000000081526004016141de90615723565b60405180910390fd5b8360018603815181106141fd576141fc614e94565b5b602002602001015197505050505050505061426c565b600087111561424657886000815181106142305761422f614e94565b5b602002602001015197505050505050505061426c565b8a60008151811061425a57614259614e94565b5b60200260200101519750505050505050505b9392505050565b60008082905060005b84518110156142be576142a98286838151811061429c5761429b614e94565b5b60200260200101516142c9565b915080806142b690614ec3565b91505061427c565b508091505092915050565b60008183106142e1576142dc82846142f4565b6142ec565b6142eb83836142f4565b5b905092915050565b600082600052816020526040600020905092915050565b60405180610120016040528061431f614393565b815260200161432c614393565b81526020016000600581111561434557614344614c09565b5b8152602001600073ffffffffffffffffffffffffffffffffffffffff16815260200160001515815260200160008152602001600060ff168152602001600060ff168152602001600081525090565b6040518060a00160405280600073ffffffffffffffffffffffffffffffffffffffff168152602001600080191681526020016000815260200160008152602001606081525090565b82805482825590600052602060002090601f016020900481019282156144805791602002820160005b8382111561445157835183826101000a81548160ff021916908360038111156144305761442f614c09565b5b02179055509260200192600101602081600001049283019260010302614404565b801561447e5782816101000a81549060ff0219169055600101602081600001049283019260010302614451565b505b50905061448d9190614491565b5090565b5b808211156144aa576000816000905550600101614492565b5090565b6000604051905090565b600080fd5b600080fd5b6000819050919050565b6144d5816144c2565b81146144e057600080fd5b50565b6000813590506144f2816144cc565b92915050565b60006020828403121561450e5761450d6144b8565b5b600061451c848285016144e3565b91505092915050565b600060ff82169050919050565b61453b81614525565b811461454657600080fd5b50565b60008135905061455881614532565b92915050565b60008060408385031215614575576145746144b8565b5b600061458385828601614549565b925050602061459485828601614549565b9150509250929050565b600081519050919050565b600082825260208201905092915050565b6000819050602082019050919050565b6145d3816144c2565b82525050565b60006145e583836145ca565b60208301905092915050565b6000602082019050919050565b60006146098261459e565b61461381856145a9565b935061461e836145ba565b8060005b8381101561464f57815161463688826145d9565b9750614641836145f1565b925050600181019050614622565b5085935050505092915050565b6000602082019050818103600083015261467681846145fe565b905092915050565b600080fd5b6000601f19601f8301169050919050565b7f4e487b7100000000000000000000000000000000000000000000000000000000600052604160045260246000fd5b6146cc82614683565b810181811067ffffffffffffffff821117156146eb576146ea614694565b5b80604052505050565b60006146fe6144ae565b905061470a82826146c3565b919050565b600067ffffffffffffffff82111561472a57614729614694565b5b602082029050602081019050919050565b600080fd5b6000819050919050565b61475381614740565b811461475e57600080fd5b50565b6000813590506147708161474a565b92915050565b60006147896147848461470f565b6146f4565b905080838252602082019050602084028301858111156147ac576147ab61473b565b5b835b818110156147d557806147c18882614761565b8452602084019350506020810190506147ae565b5050509392505050565b600082601f8301126147f4576147f361467e565b5b8135614804848260208601614776565b91505092915050565b600067ffffffffffffffff82111561482857614827614694565b5b602082029050602081019050919050565b60008115159050919050565b61484e81614839565b811461485957600080fd5b50565b60008135905061486b81614845565b92915050565b600061488461487f8461480d565b6146f4565b905080838252602082019050602084028301858111156148a7576148a661473b565b5b835b818110156148d057806148bc888261485c565b8452602084019350506020810190506148a9565b5050509392505050565b600082601f8301126148ef576148ee61467e565b5b81356148ff848260208601614871565b91505092915050565b600067ffffffffffffffff82111561492357614922614694565b5b602082029050602081019050919050565b600061494761494284614908565b6146f4565b9050808382526020820190506020840283018581111561496a5761496961473b565b5b835b81811015614993578061497f8882614549565b84526020840193505060208101905061496c565b5050509392505050565b600082601f8301126149b2576149b161467e565b5b81356149c2848260208601614934565b91505092915050565b600080600080600060a086880312156149e7576149e66144b8565b5b60006149f5888289016144e3565b955050602086013567ffffffffffffffff811115614a1657614a156144bd565b5b614a22888289016147df565b945050604086013567ffffffffffffffff811115614a4357614a426144bd565b5b614a4f888289016148da565b935050606086013567ffffffffffffffff811115614a7057614a6f6144bd565b5b614a7c888289016147df565b925050608086013567ffffffffffffffff811115614a9d57614a9c6144bd565b5b614aa98882890161499d565b9150509295509295909350565b60008060408385031215614acd57614acc6144b8565b5b6000614adb858286016144e3565b9250506020614aec85828601614761565b9150509250929050565b60008060408385031215614b0d57614b0c6144b8565b5b6000614b1b858286016144e3565b9250506020614b2c85828601614549565b9150509250929050565b600063ffffffff82169050919050565b614b4f81614b36565b8114614b5a57600080fd5b50565b600081359050614b6c81614b46565b92915050565b600080600080600060a08688031215614b8e57614b8d6144b8565b5b6000614b9c88828901614b5d565b955050602086013567ffffffffffffffff811115614bbd57614bbc6144bd565b5b614bc9888289016147df565b9450506040614bda88828901614549565b9350506060614beb88828901614549565b9250506080614bfc88828901614549565b9150509295509295909350565b7f4e487b7100000000000000000000000000000000000000000000000000000000600052602160045260246000fd5b600082825260208201905092915050565b7f20546865207068617365206973206e6f7420636f727265637400000000000000600082015250565b6000614c7f601983614c38565b9150614c8a82614c49565b602082019050919050565b60006020820190508181036000830152614cae81614c72565b9050919050565b7f596f75206861766520616c72656164792073656e6420746865206d6f6e657900600082015250565b6000614ceb601f83614c38565b9150614cf682614cb5565b602082019050919050565b60006020820190508181036000830152614d1a81614cde565b9050919050565b7f4e487b7100000000000000000000000000000000000000000000000000000000600052601160045260246000fd5b6000614d5b826144c2565b9150614d66836144c2565b9250827fffffffffffffffffffffffffffffffffffffffffffffffffffffffffffffffff03821115614d9b57614d9a614d21565b5b828201905092915050565b600073ffffffffffffffffffffffffffffffffffffffff82169050919050565b6000819050919050565b6000614deb614de6614de184614da6565b614dc6565b614da6565b9050919050565b6000614dfd82614dd0565b9050919050565b6000614e0f82614df2565b9050919050565b614e1f81614e04565b82525050565b614e2e816144c2565b82525050565b6000606082019050614e496000830186614e16565b614e566020830185614e16565b614e636040830184614e25565b949350505050565b6000604082019050614e806000830185614e16565b614e8d6020830184614e16565b9392505050565b7f4e487b7100000000000000000000000000000000000000000000000000000000600052603260045260246000fd5b6000614ece826144c2565b91507fffffffffffffffffffffffffffffffffffffffffffffffffffffffffffffffff8203614f0057614eff614d21565b5b600182019050919050565b6000614f1682614da6565b9050919050565b614f2681614f0b565b82525050565b6000614f47614f42614f3d84614525565b614dc6565b6144c2565b9050919050565b614f5781614f2c565b82525050565b6000608082019050614f726000830187614e25565b614f7f6020830186614f1d565b614f8c6040830185614f4e565b614f996060830184614f4e565b95945050505050565b7f4e6f2047616d65204176616961626c6500000000000000000000000000000000600082015250565b6000614fd8601083614c38565b9150614fe382614fa2565b602082019050919050565b6000602082019050818103600083015261500781614fcb565b9050919050565b6000819050919050565b615029615024826144c2565b61500e565b82525050565b60008160601b9050919050565b60006150478261502f565b9050919050565b60006150598261503c565b9050919050565b61507161506c82614f0b565b61504e565b82525050565b60006150838286615018565b6020820191506150938285615060565b6014820191506150a38284615018565b602082019150819050949350505050565b7f4e487b7100000000000000000000000000000000000000000000000000000000600052601260045260246000fd5b60006150ee826144c2565b91506150f9836144c2565b925082615109576151086150b4565b5b828206905092915050565b600061511f826144c2565b915061512a836144c2565b92508282101561513d5761513c614d21565b5b828203905092915050565b7f4e487b7100000000000000000000000000000000000000000000000000000000600052603160045260246000fd5b600060a08201905061518c6000830188614e16565b6151996020830187614e16565b6151a66040830186614f4e565b6151b36060830185614f4e565b6151c06080830184614e25565b9695505050505050565b60006020820190506151df6000830184614f1d565b92915050565b7f54686520526f6f7420697320616c726561647920636f6d6d6974656400000000600082015250565b600061521b601c83614c38565b9150615226826151e5565b602082019050919050565b6000602082019050818103600083015261524a8161520e565b9050919050565b60006020820190506152666000830184614e16565b92915050565b7f596f75206861766520616c72656164792053686f74206174207468697320706f60008201527f736974696f6e0000000000000000000000000000000000000000000000000000602082015250565b60006152c8602683614c38565b91506152d38261526c565b604082019050919050565b600060208201905081810360008301526152f7816152bb565b9050919050565b7f546865207068617365206973206e6f7420636f72726563740000000000000000600082015250565b6000615334601883614c38565b915061533f826152fe565b602082019050919050565b6000602082019050818103600083015261536381615327565b9050919050565b7f49742773206e6f742074686520706c617965722773207475726e2e0000000000600082015250565b60006153a0601b83614c38565b91506153ab8261536a565b602082019050919050565b600060208201905081810360008301526153cf81615393565b9050919050565b7f54686520706f736974696f6e20697320696e636f727265637400000000000000600082015250565b600061540c601983614c38565b9150615417826153d6565b602082019050919050565b6000602082019050818103600083015261543b816153ff565b9050919050565b61544b81614525565b82525050565b60006040820190506154666000830185614f1d565b6154736020830184615442565b9392505050565b7f54686520706c61796572206973207374696c6c206f6e6c696e65000000000000600082015250565b60006154b0601a83614c38565b91506154bb8261547a565b602082019050919050565b600060208201905081810360008301526154df816154a3565b9050919050565b7f596f752063616e2774207265706f727420647572696e6720796f75722074757260008201527f6e00000000000000000000000000000000000000000000000000000000000000602082015250565b6000615542602183614c38565b915061554d826154e6565b604082019050919050565b6000602082019050818103600083015261557181615535565b9050919050565b60008160f81b9050919050565b600061559082615578565b9050919050565b6155a86155a382614525565b615585565b82525050565b60006155ba8284615597565b60018201915081905092915050565b60006060820190506155de6000830186615442565b6155eb6020830185614e16565b6155f86040830184615442565b949350505050565b7f596f752063616e6e6f74206a6f696e207468652067616d6520796f752068617660008201527f6520637265617465640000000000000000000000000000000000000000000000602082015250565b600061565c602983614c38565b915061566782615600565b604082019050919050565b6000602082019050818103600083015261568b8161564f565b9050919050565b60006080820190506156a76000830187614e16565b6156b46020830186614e16565b6156c16040830185614f4e565b6156ce6060830184614f4e565b95945050505050565b7f4d65726b6c6550726f6f663a20696e76616c6964206d756c746970726f6f6600600082015250565b600061570d601f83614c38565b9150615718826156d7565b602082019050919050565b6000602082019050818103600083015261573c81615700565b905091905056fea2646970667358221220a26fe64ab776e790de67fddeeba4842957feb3d7040380acbef379a2732cdb6c64736f6c634300080d0033",
  "immutableReferences": {},
  "source": "// SPDX-License-Identifier: MIT\npragma solidity >=0.4.22 <0.9.0;\nimport \"@openzeppelin/contracts/utils/cryptography/MerkleProof.sol\";\nimport \"@openzeppelin/contracts/utils/math/SafeMath.sol\";\n  \n  contract GameRule {\n\n  enum phase {WaitP,GameSt,Deal,Placing ,Shoting,End}\n  enum Shot {hit,miss,take,none}\n\n  struct Player{\n    address payable player; // address of the player\n    bytes32 Root; //root of merklee tree\n    uint256 hitb; // number of boat hits by the player\n    uint money; //money to play the game\n    Shot [] Shots; //shot take and results\n  }\n  struct SingleGame\n  {\n    Player firstPlayer; //address of the first player\n    Player secondPlayer; //address of the second player\n    phase currph; //current phase of the game\n    address playerturn; // The address of the player of the current turn\n    bool firstShot; //used to check the  shooting phase\n    uint moneyDeal; //money deal\n    uint8 Boardim; //dimension of the board\n    uint8 Boats; //number of the boats\n    uint256 BlockNumber; // last block  number, used for check the inactivity\n  }\n    uint rndNonce=0; //used to generate an Id\n    uint256 nonce=0; //used to join random game\n    uint256 modulus=10000; // used to generate an Id\n    uint256 constant inactiveTime=3; //used for report the other player\n   \n    \n    \n    mapping(uint256 => bool) GamesJoin; // Use to ckeck if the game is full\n    mapping(uint256=> SingleGame) ListGames; //all the  current game\n\n    uint256 [] totalGame;  //used to join random games\n\n\n    //I notify that an agreement has been reached and the player can start.\n    event GameStart(address pl1, address pl2, uint Amount);\n    \n    //  notify the player that the game has been created.\n    event GameCreated(uint id,address pl,uint256 dimboard,uint256 boats);\n    \n    // notify the player that they have joined the game with Id.\n    event GameJoin(address pl1,address pl2,uint256 dimboard,uint256 boats);\n\n    // notify the player that they have joined the game by entering random\n    event GamerndJoin(address pl1,address pl2,uint256 dimboard,uint256 boats,uint256 Id);\n    \n    // notify the player who tried to join that the game is full.\n    event GameFull(address pl);\n\n    //Both players have memorized the root. The shooting phase begins\n    event Startshoting(address plt);\n    \n    // Notify  the opponent about which position has been hit.\n    event ShotTaken(address pl,uint8 pos);\n    \n    //The wagered amount is not the same\n    event NotEqualAmnt(address pl1,address pl2);\n   \n    // notify the opponent of the shooting result.\n    event Resultshot(uint8 pos,address opp,uint8 resutlShot);\n  \n    // declare who the winner of the game is.\n    event Winner(address win);\n    \n    // notify the potential winner that they need to send the data for victory verification.\n    event CheckWinner(address win);\n\n \n\n   \n  \n    //modifier to check  if the current phase of the game is correct\n    modifier checkjoinPlayer(uint256 Id)\n    {\n      SingleGame memory game=ListGames[Id];\n      require(game.currph==phase.WaitP, \" The phase is not correct\");\n      _;\n    }\n    modifier checkBet(uint256 Id)\n    {\n      SingleGame  memory game=ListGames[Id];\n      require(game.currph==phase.GameSt, \" The phase is not correct\");\n      _;\n    }\n    modifier checkPlace(uint256 Id)\n    {\n      SingleGame memory game=ListGames[Id];\n      require(game.currph==phase.Deal,\" The phase is not correct\");\n      _;\n    }\n    modifier checkEnd(uint256 Id)\n    {\n      SingleGame memory game=ListGames[Id];\n      require(game.currph==phase.Shoting,\" The phase is not correct\");\n      _;\n    }\n\n    \n// Modifier to check that the position hasn't been hit already.\n    modifier alreadyShoot(uint256 Id,uint8 pos)\n    {\n      Player memory player;\n      if(ListGames[Id].firstPlayer.player==msg.sender)\n      {\n        player=ListGames[Id].firstPlayer;\n      }\n      else\n      {\n        player=ListGames[Id].secondPlayer;\n      }\n      \n      require(player.Shots[pos]==Shot.none,\"You have already Shot at this position\");\n      _;\n    }\n  \n\n  // return the leaves to check, Used when there's a potential winner, to determine the missing leaves to check.\n  function GetTocheck(uint256 Id)   public view returns(uint[] memory)\n  {\n    Player memory pl;\n    uint[] memory tocheck=new uint[](ListGames[Id].Boardim);\n    if(ListGames[Id].firstPlayer.player==msg.sender)\n    {\n      pl=ListGames[Id].secondPlayer; \n    }\n    else\n    {\n      pl=ListGames[Id].firstPlayer;\n    }\n    //I am retrive an array Where the position shows 1, if the position still needs to be checked.\n    for(uint i=0;i<pl.Shots.length;i++)\n    {\n      if(pl.Shots[i]==Shot.none)\n      {\n        tocheck[i]=1;\n      }\n      else\n      {\n        tocheck[i]=0;\n      }\n    }\n    return tocheck;\n  }\n  //function for creating the game\n  function createGame(uint8 Boardim,uint8 Boats)  public \n  {\n    \n    uint Id = rndId(msg.sender);\n    SingleGame memory Game;\n\n    Player memory firstPlayer;\n    Player memory secondPlayer;\n    firstPlayer.player= payable(msg.sender);\n    firstPlayer.money=0;\n    \n    firstPlayer.Shots= new Shot[](Boardim);\n    secondPlayer.Shots= new Shot[](Boardim);\n    for(uint i =0;i<Boardim;i++)\n    {\n      firstPlayer.Shots[i]=Shot.none;\n    }\n    for(uint i =0;i<Boardim;i++)\n    {\n      secondPlayer.Shots[i]=Shot.none;\n    }\n    Game.firstPlayer=firstPlayer;\n    Game.secondPlayer=secondPlayer;\n    Game.firstShot=true;\n    Game.currph=phase.WaitP;\n    Game.Boardim=Boardim;\n    Game.Boats=Boats;\n    ListGames[Id]=Game;\n    GamesJoin[Id]=false; // il game  joinable\n    totalGame.push(Id); // other player can join random the game\n    emit GameCreated(Id,msg.sender,Boardim,Boats);\n  \n  }\n    \n    //function for join  the game by Id\n  function joinGame(uint256 Id)   public\n  {\n    uint idx;\n    require(msg.sender!=ListGames[Id].firstPlayer.player,\"You cannot join the game you have created\");\n    if(GamesJoin[Id]==true) // a player already join the game\n    {\n      emit GameFull(msg.sender);\n    }\n    else\n    {\n  \n      GamesJoin[Id]=true;\n      ListGames[Id].secondPlayer.player=payable(msg.sender);\n      ListGames[Id].secondPlayer.money=0;\n      ListGames[Id].currph=phase.GameSt; //change the phase\n      \n      for(uint i=0;i<totalGame.length;i++)\n      {\n        if(totalGame[i]==Id)\n        {\n          idx=i;\n        }\n      }\n      delete totalGame[idx]; // Is not joinable\n      if(idx==totalGame.length-1)\n      {\n        totalGame.pop();\n      }\n      else\n      {\n        totalGame[idx] = totalGame[totalGame.length - 1];\n        totalGame.pop();\n      }\n      emit GameJoin(ListGames[Id].firstPlayer.player,ListGames[Id].secondPlayer.player,ListGames[Id].Boardim,ListGames[Id].Boats);\n\n    }\n  }\n\n  //function to join a random game\n  function joinrndGame() public\n  {\n    require(totalGame.length!=0,\"No Game Avaiable\");\n    uint idxrnd=uint(keccak256(abi.encodePacked(block.timestamp,msg.sender,nonce))) % totalGame.length;\n    nonce ++;\n    uint256 Id=totalGame[idxrnd];\n    ListGames[Id].secondPlayer.player=payable(msg.sender);\n    ListGames[Id].currph=phase.GameSt; //change the phase\n    GamesJoin[Id]=true;\n    delete totalGame[idxrnd];\n    if(idxrnd==totalGame.length-1)\n    {\n      totalGame.pop();\n    }\n    else\n    {\n      totalGame[idxrnd] = totalGame[totalGame.length - 1];\n      totalGame.pop();\n    }\n    \n    emit GamerndJoin(ListGames[Id].firstPlayer.player,ListGames[Id].secondPlayer.player,ListGames[Id].Boardim,ListGames[Id].Boats,Id);\n  }\n    //function to propose the bet, and check if the amount is equal\n  function proposedBet(uint256 Id)   checkBet(Id) public payable \n  {\n    if(GamesJoin[Id]==true)\n    {\n      if(ListGames[Id].firstPlayer.player==msg.sender)\n      {\n        require( ListGames[Id].firstPlayer.money==0,\"You have already send the money\"); //Check that the first player hasn't already sent the money\n        ListGames[Id].firstPlayer.money=msg.value;\n        ListGames[Id].BlockNumber=block.number;\n      }\n      else\n      {\n        require( ListGames[Id].secondPlayer.money==0,\"You have already send the money\"); //Check that the second player hasn't already sent the money\n        ListGames[Id].secondPlayer.money=msg.value;\n        ListGames[Id].BlockNumber=block.number; //save the last interaction\n      }\n      //check if the value is equal\n      if(ListGames[Id].firstPlayer.money!=0 && ListGames[Id].secondPlayer.money!=0)\n      {\n        if(ListGames[Id].firstPlayer.money==ListGames[Id].secondPlayer.money)\n        {\n          ListGames[Id].moneyDeal=ListGames[Id].firstPlayer.money+ListGames[Id].secondPlayer.money;\n          ListGames[Id].currph=phase.Deal; //change the phase\n          ListGames[Id].firstPlayer.Root=0;\n          ListGames[Id].secondPlayer.Root=0;\n          emit GameStart(ListGames[Id].firstPlayer.player,ListGames[Id].secondPlayer.player,ListGames[Id].moneyDeal); \n        }\n        else\n        {\n          emit NotEqualAmnt(ListGames[Id].firstPlayer.player,ListGames[Id].secondPlayer.player);\n          ListGames[Id].firstPlayer.player.transfer(ListGames[Id].moneyDeal); // the money return to the player\n          ListGames[Id].secondPlayer.player.transfer(ListGames[Id].moneyDeal); // the money return to the player\n          ListGames[Id].firstPlayer.money=0;\n          ListGames[Id].secondPlayer.money=0;\n        }\n      }\n\n      \n    }\n    \n  }\n\n    //Player turn that selects the coordinates to shoot and sends them to the smart contract.\n    function attack(uint256 Id,uint8 pos)    alreadyShoot(Id,pos) public\n    {\n      if(ListGames[Id].firstShot==true)\n      {\n        require(ListGames[Id].currph==phase.Placing,\"The phase is not correct\");\n        ListGames[Id].firstShot=false;\n        ListGames[Id].currph=phase.Shoting;\n      }\n      require(ListGames[Id].playerturn==msg.sender,\"It's not the player's turn.\");\n      require(pos<ListGames[Id].Boardim ,\"The position is incorrect\");\n      if( ListGames[Id].firstPlayer.player==msg.sender) //the shot is taken, the result is update when the opponent commit the proof with the result of the shoot\n      {\n        ListGames[Id].firstPlayer.Shots[pos]=Shot.take;\n      }\n      else\n      {\n        ListGames[Id].secondPlayer.Shots[pos]=Shot.take;\n      }\n      // Set the shot as taken\n      \n      ListGames[Id].BlockNumber=block.number; // store the last block number is use for testing if the opponent is AFK\n      emit ShotTaken(msg.sender, pos); // Notify opponent of position of the shot\n      \n    }\n  \n  \n\n  //verify the player tell the true and not modify the merklee tree\n  //the Player generates a Merkle proof demonstrating that their secret board configuration satisfies the  hit/miss result they claim\n  function verify(uint32 Id,bytes32[] memory proof,uint8 leaves,uint8 pos,uint8 shotr)   public \n  {\n    bool result;\n    bytes32 root;   \n    bytes32 leaf;\n    address payable opponent;\n    //take the root\n    if(ListGames[Id].firstPlayer.player==msg.sender)\n    {\n      root=ListGames[Id].firstPlayer.Root;\n      opponent=ListGames[Id].secondPlayer.player;\n    }\n    else \n    {\n      root=ListGames[Id].secondPlayer.Root;\n      opponent=ListGames[Id].firstPlayer.player;\n    }  \n\n    leaf=keccak256(abi.encodePacked(leaves)); // generate the leaf\n    result=MerkleProof.verify(proof, root, leaf); \n    if(result) // if the result proof is correct\n    {\n      ListGames[Id].playerturn=msg.sender; //change the turn of the game\n\n      if(shotr==1) // add hits made by the player, and check the win\n      {\n        if( ListGames[Id].firstPlayer.player==msg.sender)\n        {\n          ListGames[Id].secondPlayer.Shots[pos]=Shot.hit;\n          ListGames[Id].secondPlayer.hitb++;\n          checkwin(Id,payable(ListGames[Id].secondPlayer.player));\n        }\n        else\n        {\n          ListGames[Id].firstPlayer.Shots[pos]=Shot.hit;\n          ListGames[Id].firstPlayer.hitb++;\n          checkwin(Id,payable(ListGames[Id].firstPlayer.player));\n        }\n        emit Resultshot(pos,opponent,uint8(shotr)); // notify the opponent the result of the shot\n      }\n      else // if miss the boat \n      {\n        if( ListGames[Id].firstPlayer.player==msg.sender)\n        {\n          ListGames[Id].secondPlayer.Shots[pos]=Shot.miss;\n        }\n        else\n        {\n          ListGames[Id].firstPlayer.Shots[pos]=Shot.miss;\n        }\n        emit Resultshot(pos,opponent,uint8(shotr));\n      }\n    }\n    //if the root change the opponent win,because the player is cheating\n    else\n    {\n      emit Winner(opponent);\n      opponent.transfer(ListGames[Id].moneyDeal);\n    }\n    \n  }\n\n  //report the player afk\n function Playerafk(uint256 Id)  external\n {\n    uint256 sumbloc=SafeMath.add(ListGames[Id].BlockNumber,inactiveTime); //use libray safe, to sum the last block numer of the game + limit block\n    require(block.number> sumbloc,\"The player is still online\");\n    address opponent;\n    if(ListGames[Id].firstPlayer.player==msg.sender)\n    {\n      opponent=ListGames[Id].secondPlayer.player;\n    }\n    else if(ListGames[Id].secondPlayer.player==msg.sender)\n    {\n      opponent=ListGames[Id].firstPlayer.player;\n    }\n    if(ListGames[Id].currph==phase.GameSt)\n    {\n      emit Winner(msg.sender);   \n      payable(msg.sender).transfer(ListGames[Id].moneyDeal); \n      \n    }\n    else\n    {\n      require(ListGames[Id].playerturn!=msg.sender,\"You can't report during your turn\");\n      emit Winner(msg.sender);   \n      payable(msg.sender).transfer(ListGames[Id].moneyDeal); \n      \n    }\n }\n\n\n\n// function to che the winner\nfunction checkwin(uint256 Id,address payable winner)  internal\n{\n  uint256 Boats=ListGames[Id].Boats;\n  uint hit;\n  if(ListGames[Id].firstPlayer.player==winner)\n  {\n    hit=ListGames[Id].firstPlayer.hitb;\n  }\n  else\n  {\n    hit=ListGames[Id].secondPlayer.hitb;\n  }\n  if(hit==Boats) //The number of shots on target is equal to the number of hits of the boats\n  {\n    emit CheckWinner(winner); // the player must  provide the board\n   \n  }\n}\n\n  //function to verify  the proof of unverified leaves to declare the winner of the game.\n  function verifyWin( uint256 Id,bytes32[] memory proof,\n        bool[] memory proofFlags,\n        bytes32[] memory leaves,\n        uint8 [] memory values)   public\n  {\n    uint count=0;\n    bool result=true;\n    address opponent;\n    bytes32 Root;\n    Shot[] memory shotspl;\n    SingleGame memory Game=ListGames[Id];\n    uint moneyPay=ListGames[Id].moneyDeal;\n    if(Game.firstPlayer.player==msg.sender)\n    {\n      Root=Game.firstPlayer.Root;\n      opponent=Game.secondPlayer.player;\n      shotspl=Game.secondPlayer.Shots; //opponent shot\n    }\n    else \n    {\n      Root=Game.secondPlayer.Root;\n      opponent=Game.firstPlayer.player; //opponent shot\n      shotspl=Game.firstPlayer.Shots;\n    } \n    result=MerkleProof.multiProofVerify(proof, proofFlags, Root, leaves); // check the last leaves remain if the proof is correct\n    //Check if there is a ship the value of the shot must be different from Miss\n    for(uint i=0;i<values.length;i++)\n    {\n      if(values[i]==1)\n      {\n        count++;\n        if(shotspl[i]==Shot.miss) //The player has lied, where there was a boat, he declared a miss\n        {\n          result=false;\n        }\n      }\n    }\n    \n    if(result==false)\n    {\n      //the player cheat, the opponent win the game\n      emit Winner(opponent);\n      ListGames[Id].currph=phase.End;\n      payable(opponent).transfer(moneyPay);\n      return;\n    }\n\n    if(count!=ListGames[Id].Boats) // check if the number of cordinates boats in the grid is equal to the number of cordiantes boats decalred when we create the game\n    {\n      emit Winner(opponent);\n      ListGames[Id].currph=phase.End;\n      payable(opponent).transfer(moneyPay);\n      return;\n    }\n    if(values.length!=ListGames[Id].Boardim) // check if the dimension of the board is correct\n    {\n      emit Winner(opponent);\n      ListGames[Id].currph=phase.End;\n      payable(opponent).transfer(moneyPay);\n      return;\n    }\n    \n    \n    if(result) // result of multiProofVerify\n    {\n      emit Winner(msg.sender);\n      ListGames[Id].currph=phase.End;\n      payable(msg.sender).transfer(moneyPay);\n      return;\n    }\n    \n  }\n\n   \n  // store the merkle root in the contract\n  function storeRoot(uint256 Id,bytes32 Rootm) checkPlace(Id) public\n  {    \n    if(ListGames[Id].firstPlayer.player==msg.sender)\n    {\n      require(ListGames[Id].firstPlayer.Root==0,'The Root is already commited');\n      ListGames[Id].firstPlayer.Root=Rootm;\n      ListGames[Id].BlockNumber=block.number;\n    \n    }\n    else if(ListGames[Id].secondPlayer.player==msg.sender)\n    {\n      require(ListGames[Id].secondPlayer.Root==0,'The Root is already commited'); //check that the root is not already commited\n      ListGames[Id].secondPlayer.Root=Rootm;\n      ListGames[Id].BlockNumber=block.number;\n      \n    }\n    \n    if(ListGames[Id].firstPlayer.Root!=0 && ListGames[Id].secondPlayer.Root!=0)\n    {\n      ListGames[Id].currph=phase.Placing; // change the phase of the game\n      ListGames[Id].playerturn=ListGames[Id].firstPlayer.player; // is the turn of the first player\n      emit Startshoting(ListGames[Id].firstPlayer.player);// the current turn is of the first player that create the game\n    }\n  }\n\n  //function to generate random index\n  function rndId(address player) internal returns(uint256) {\n    rndNonce++;\n    return uint256(keccak256(abi.encodePacked(block.timestamp,player,rndNonce))) % modulus;\n    \n  }\n}\n\n",
  "sourcePath": "C:\\Users\\fraci\\Desktop\\ProjectP2P_FrancescoCaprari580154\\Battleship\\contracts\\GameRule.sol",
  "compiler": {
    "name": "solc",
    "version": "0.8.13+commit.abaa5c0e.Emscripten.clang"
  },
  "schemaVersion": "3.4.14",
  "updatedAt": "2023-09-13T13:55:13.193Z",
  "networkType": "ethereum",
  "devdoc": {
    "kind": "dev",
    "methods": {},
    "version": 1
  },
  "userdoc": {
    "kind": "user",
    "methods": {},
    "version": 1
  }
}