{
  "contractName": "GameRule",
  "abi": [
    {
      "inputs": [],
      "stateMutability": "nonpayable",
      "type": "constructor"
    },
    {
      "anonymous": false,
      "inputs": [
        {
          "indexed": false,
          "internalType": "uint256",
          "name": "id",
          "type": "uint256"
        }
      ],
      "name": "GameCreated",
      "type": "event"
    },
    {
      "anonymous": false,
      "inputs": [],
      "name": "GameFull",
      "type": "event"
    },
    {
      "anonymous": false,
      "inputs": [],
      "name": "GameJoin",
      "type": "event"
    },
    {
      "anonymous": false,
      "inputs": [],
      "name": "GameStart",
      "type": "event"
    },
    {
      "inputs": [],
      "name": "createGame",
      "outputs": [],
      "stateMutability": "nonpayable",
      "type": "function"
    },
    {
      "inputs": [
        {
          "internalType": "uint256",
          "name": "Id",
          "type": "uint256"
        }
      ],
      "name": "joinGame",
      "outputs": [],
      "stateMutability": "nonpayable",
      "type": "function"
    }
  ],
  "bytecode": "0x60806040525f8055348015610012575f80fd5b50610be3806100205f395ff3fe608060405234801561000f575f80fd5b5060043610610034575f3560e01c80637255d72914610038578063efaa55a014610042575b5f80fd5b61004061005e565b005b61005c600480360381019061005791906102f2565b610161565b005b5f805490505f3382604051610072906102ae565b61007d92919061036b565b604051809103905ff080158015610096573d5f803e3d5ffd5b5090505f60015f8481526020019081526020015f205f6101000a81548160ff0219169083151502179055508060025f8481526020019081526020015f205f6101000a81548173ffffffffffffffffffffffffffffffffffffffff021916908373ffffffffffffffffffffffffffffffffffffffff1602179055507fbd19c47e9925eb6f7be8bb1c13a841e0240aaeaf17f217e90022e9c8eb66877f8260405161013f9190610392565b60405180910390a15f80815480929190610158906103d8565b91905055505050565b6001151560015f8381526020019081526020015f205f9054906101000a900460ff161515036101bb577fb3ed896d8cd50041d5d4efdbcbe1effd8f69b0ea48d422ab2f3a09bc427603e160405160405180910390a16102ab565b6001805f8381526020019081526020015f205f6101000a81548160ff0219169083151502179055505f60025f8381526020019081526020015f205f9054906101000a900473ffffffffffffffffffffffffffffffffffffffff1690508073ffffffffffffffffffffffffffffffffffffffff1663b028361a336040518263ffffffff1660e01b8152600401610250919061041f565b5f604051808303815f87803b158015610267575f80fd5b505af1158015610279573d5f803e3d5ffd5b505050507f931b8f3d7d3c1cdfc7bea63c9596be6b0250ebf59749614c01643e6e8328c7fa60405160405180910390a1505b50565b6107758061043983390190565b5f80fd5b5f819050919050565b6102d1816102bf565b81146102db575f80fd5b50565b5f813590506102ec816102c8565b92915050565b5f60208284031215610307576103066102bb565b5b5f610314848285016102de565b91505092915050565b5f73ffffffffffffffffffffffffffffffffffffffff82169050919050565b5f6103468261031d565b9050919050565b6103568161033c565b82525050565b610365816102bf565b82525050565b5f60408201905061037e5f83018561034d565b61038b602083018461035c565b9392505050565b5f6020820190506103a55f83018461035c565b92915050565b7f4e487b71000000000000000000000000000000000000000000000000000000005f52601160045260245ffd5b5f6103e2826102bf565b91507fffffffffffffffffffffffffffffffffffffffffffffffffffffffffffffffff8203610414576104136103ab565b5b600182019050919050565b5f6020820190506104325f83018461034d565b9291505056fe608060405234801561000f575f80fd5b5060405161077538038061077583398181016040528101906100319190610138565b8160025f6101000a81548173ffffffffffffffffffffffffffffffffffffffff021916908373ffffffffffffffffffffffffffffffffffffffff160217905550805f819055505f60075f6101000a81548160ff0219169083600581111561009b5761009a610176565b5b021790555050506101a3565b5f80fd5b5f73ffffffffffffffffffffffffffffffffffffffff82169050919050565b5f6100d4826100ab565b9050919050565b6100e4816100ca565b81146100ee575f80fd5b50565b5f815190506100ff816100db565b92915050565b5f819050919050565b61011781610105565b8114610121575f80fd5b50565b5f815190506101328161010e565b92915050565b5f806040838503121561014e5761014d6100a7565b5b5f61015b858286016100f1565b925050602061016c85828601610124565b9150509250929050565b7f4e487b71000000000000000000000000000000000000000000000000000000005f52602160045260245ffd5b6105c5806101b05f395ff3fe608060405234801561000f575f80fd5b5060043610610091575f3560e01c806375529baf1161006457806375529baf146100f55780637f696b79146100ff578063911b8b4e1461011d578063b028361a14610139578063b3a92a601461015557610091565b806323464fa714610095578063547125241461009f57806355848e38146100bd57806357b5b32f146100d9575b5f80fd5b61009d610173565b005b6100a761021e565b6040516100b491906103ad565b60405180910390f35b6100d760048036038101906100d291906103fd565b610243565b005b6100f360048036038101906100ee91906103fd565b61024d565b005b6100fd610257565b005b610107610259565b60405161011491906103ad565b60405180910390f35b6101376004803603810190610132919061045b565b61027e565b005b610153600480360381019061014e91906104b0565b6102c3565b005b61015d61035c565b60405161016a919061054e565b60405180910390f35b600654600554036101ef57600554600481905550600260075f6101000a81548160ff021916908360058111156101ac576101ab6104db565b5b02179055507fd33c616b7b943889ca2140d7cbe4ce1ab3dc9bfc7a94659e27f752cfbe46e4aa6004546040516101e29190610576565b60405180910390a161021c565b7fdd758e66ee01dcecee8d8fbbbb5412d39badf7694269298316f36754af478da360405160405180910390a15b565b60025f9054906101000a900473ffffffffffffffffffffffffffffffffffffffff1681565b8060068190555050565b8060058190555050565b565b60035f9054906101000a900473ffffffffffffffffffffffffffffffffffffffff1681565b8060015f3373ffffffffffffffffffffffffffffffffffffffff1673ffffffffffffffffffffffffffffffffffffffff1681526020019081526020015f208190555050565b8060035f6101000a81548173ffffffffffffffffffffffffffffffffffffffff021916908373ffffffffffffffffffffffffffffffffffffffff1602179055507f9b69868ac25ea1a7cc34b8416317af62ec3718adf5b70cabc43903e50cb8754860405160405180910390a1600160075f6101000a81548160ff02191690836005811115610354576103536104db565b5b021790555050565b60075f9054906101000a900460ff1681565b5f73ffffffffffffffffffffffffffffffffffffffff82169050919050565b5f6103978261036e565b9050919050565b6103a78161038d565b82525050565b5f6020820190506103c05f83018461039e565b92915050565b5f80fd5b5f819050919050565b6103dc816103ca565b81146103e6575f80fd5b50565b5f813590506103f7816103d3565b92915050565b5f60208284031215610412576104116103c6565b5b5f61041f848285016103e9565b91505092915050565b5f819050919050565b61043a81610428565b8114610444575f80fd5b50565b5f8135905061045581610431565b92915050565b5f602082840312156104705761046f6103c6565b5b5f61047d84828501610447565b91505092915050565b61048f8161038d565b8114610499575f80fd5b50565b5f813590506104aa81610486565b92915050565b5f602082840312156104c5576104c46103c6565b5b5f6104d28482850161049c565b91505092915050565b7f4e487b71000000000000000000000000000000000000000000000000000000005f52602160045260245ffd5b60068110610519576105186104db565b5b50565b5f81905061052982610508565b919050565b5f6105388261051c565b9050919050565b6105488161052e565b82525050565b5f6020820190506105615f83018461053f565b92915050565b610570816103ca565b82525050565b5f6020820190506105895f830184610567565b9291505056fea264697066735822122068eea47abd5a6d634e2a844874a20a16737f4967f515c4649669e6a9ab1e498564736f6c63430008140033a2646970667358221220873cb40c6ccad98503cbb9e35032ed3d3c002f02d1ac3251d1e6a488040d938964736f6c63430008140033",
  "immutableReferences": {},
  "source": "// SPDX-License-Identifier: MIT\npragma solidity >=0.4.22 <0.9.0;\nimport \"./GameBoard.sol\";\n  contract GameRule {\n    uint IncremId=0;\n    //BoardGame[] private Games;\n\n    mapping(uint256 => bool) GamesJoin;\n    mapping(uint256 => BoardGame) Listgames;\n    event GameStart();\n    event GameCreated(uint id);\n    event GameJoin();\n    event GameFull();\n   \n   \n    \n    function createGame() public \n    {\n        // generate \n        uint Id = IncremId;\n        BoardGame Gamenew= new BoardGame(msg.sender,Id);\n        GamesJoin[Id]=false; // il game  joinable\n        Listgames[Id]=Gamenew;\n        emit GameCreated(Id);\n        IncremId ++;\n    }\n    function joinGame(uint Id) public\n    {\n        if(GamesJoin[Id]==true)\n        {\n            emit GameFull();\n        }\n        else\n        {\n            GamesJoin[Id]=true;\n            BoardGame Game=Listgames[Id];\n            Game.setSecondPl(msg.sender);\n            emit GameJoin();\n        }\n    }\n    constructor() public\n    {\n\n    }\n    \n    \n}\n\n",
  "sourcePath": "C:\\Users\\fraci\\Desktop\\Solidity_Pro\\Solidity_project\\contracts\\GameRule.sol",
  "compiler": {
    "name": "solc",
    "version": "0.8.20+commit.a1b79de6.Emscripten.clang"
  },
  "schemaVersion": "3.4.14",
  "updatedAt": "2023-06-30T09:30:05.078Z",
  "devdoc": {
    "kind": "dev",
    "methods": {},
    "version": 1
  },
  "userdoc": {
    "kind": "user",
    "methods": {},
    "version": 1
  }
}